:02000000D82AFC
:10000600270020082400910014180A280728110840
:04001600F0000800EE
:10001A0027002008240099001C1814281128190800
:04002A00F0000800DA
:10002E0023009E181C2800001728270020082300F4
:04003E009A0008001C
:1000420023001908F1009D1C28281D121D16710895
:04005200F0000800B2
:0C00560000302000911A0130F00008007A
:0C006200003023009E180130F000080060
:0A006E0071088A0070088200080083
:100078002000670886006808870026006F0881004E
:10008800413120006508F0006608F10037200800BB
:1000980026006B08F2006C08F3007208F000730881
:1000A800F100F20A0319F30A700884007108850048
:1000B80000080319602851286B087202F0006C08C8
:0E00C800733BF1000130F0020030F13B080004
:0E00D60020006908F0006A08F10037200800D9
:0E00E40020005F08F0006008F10037200800DF
:1000F2002600EE016B0884006C0885000008ED0004
:100102006D08003A031993286D08EF003C20260081
:10011200EE0A6E086B07840000306C3D8500000813
:06012200ED008128080039
:1001280026006B0823009100920126006C0823002A
:1001380093001513951315150B08F0008B13553004
:100148009600AA3096009514F01BAC288B13AD28A6
:0C0158008B171511951CB128AE2808006B
:100164002600E901EA0167080319FF286708FF3A36
:100174000319BD28E70372207008003A031DC32841
:10018400BD286B2070082600E80069086307860014
:100194000030643D870070088100E90A6A08650739
:1001A40084000030663D850000086806031DDC28D5
:1001B400EA0AE628EA016508840066088500000862
:1001C4006806031DE628EA0A6A0865078400003009
:1001D400663D85000008003A031DFE286A0869028E
:1001E400F000F1010030F13B7008630786007108EC
:1001F400643D870081010429B528630886006408EA
:06020400870081010800E3
:10020A002000FB01FA01F9018030F800F10CF00C32
:10021A00031C18297408F90775080318750FFA07DB
:10022A000318FB0A0310F01F20297408FA0775083F
:10023A000318750FFB07FB0CFA0CF90CF80C031CDE
:10024A000B297B08F3007A08F2007908F100780894
:04025A00F0000800A8
:10025E002600EB010130EC00942001302600EB006B
:10026E0020005D082600EC0094202000DC015E08D2
:10027E00003C031D44295D085C0203185C29023012
:10028E005C072600EB001D30F0002130F10020004D
:10029E005C08700784000030713D85000008260060
:1002AE00EC0094202000DC0A3E2902305C07260078
:1002BE00EB002030EC009420033020005C07260079
:1002CE00EB002030EC009420043020005C07260068
:1002DE00EB002030EC009420053020005C07260057
:1002EE00EB002030EC0094200D302700A0001720EA
:1002FE000A302700A000172048302600EB000030FF
:06030E00EC00792008005C
:100314002600630823009100920195131513151408
:060324001308F0000800C0
:10032A002930FB009630FC007F30FD00FD0B9B2935
:0A033A00FC0B9B29FB0B9B2908001C
:0E0344001D302600EB002130EC004C2008009C
:100352002000E30104305D07F10000305E3DF20051
:100362007208003C031DB729710863020318D429DF
:100372001D30F0002130F100630870072600E00014
:100382000030713DE1000230200063072600E300E7
:100392008A212600600886006108870070088100B3
:0803A2002000E30AAB2908006A
:1003AA002600E2010530620203180A2A0130E00041
:1003BA00E101083061020318082A0530F000003014
:1003CA00F10022006F08F400F50105212030F00742
:1003DA000030F13D26006208700784000030713D4C
:1003EA00850060080005F1007108003A031D002A23
:1003FA0020000C10022A20000C148C148C102600E9
:10040A00E035E10ADE29E20AD72920000C150C1191
:02041A000800D8
:10041C0020007008F100F0010830FC007108F40CA9
:10042C0003181C2AFC0B152AF10100340310212A95
:10043C00F40C0318F107F10CF00CFC0B1E2A08004D
:10044C002000F8010830FC00700DF80D7408F8025B
:10045C000318322AF8070310F00DFC0B2A2A0800A7
:10046C004C302600EB000130EC0079200D302700D9
:10047C00A00017200A302700A0001720CC3026003F
:10048C00EB000030EC0079209521952195212B2053
:10049C00700803199D2A21207008593A031D9D2AC2
:1004AC000D302700A00017200A302700A0001720CD
:1004BC00A0302600EB000030EC0079200D30270036
:1004CC00A00017200A302700A0001720203026009B
:1004DC00EB000130EC00792072207008031D772AA4
:1004EC00722A1D302600E3002130E4005730E5006D
:1004FC000030E600FA30E700B2201D3086002130D3
:10050C00870020308100A22170082000DD00DE0170
:10051C000D302700A00017200A302700A00017205C
:10052C00A0302600EB000130EC0079202F210800D0
:10053C0012001E00F003031D9E2AF103031D9E2AC8
:02054C000800A5
:10054E0017302000E5000030E600A030E700033051
:10055E00E8002130E9000030EA000030EB00003006
:10056E00EC002B30DF000030E0000030E100003006
:10057E00E20031302600D7000030D8000030D9001C
:10058E000030DA0023009E1690309D0021008D145D
:10059E000D112000911ED72A23001908F000D02A31
:0205AE00080043
:1005B000AE2670302100990023008C018D0120307F
:1005C00021008C0002308D0020008D0123009F153A
:1005D00044309B0000309C001E15A7220530FB0014
:1005E0000F30FC00F130FD00FD0BF42AFC0BF42A67
:1005F000FB0BF42A362221008D0123009D012600E9
:10060000E3018A2170082000D9007008013A031D17
:10061000132B01302600E3008A2170082000DD0042
:10062000DE01A921162B9C30DD00DE01E301043040
:100630005D07F10000305E3DF2007208003C031DD2
:10064000232B710863020318082DED015A08F400EA
:100650000830F000262270086D020318062D2200D3
:10066000EE0108306E020318D42C20005908013A1C
:10067000031D472B1D30F0002130F1006308700787
:1006800084000030713D85000008EF00512B0D30D3
:10069000840085308500630884070318850A0008F4
:1006A000EF0020306F02F300F4010030F43B033020
:1006B000F2007308F0007408F10072080319642B4B
:1006C000F035F10DFF3E5E2B0030F0078830F13D34
:1006D00022006E08700784000030713D850000081C
:1006E0002000EE000530F0000030F10022006E081E
:1006F000F400F501052120307007F2000030713D53
:10070000F30004307207F5000030733DF600750801
:100710008400760885000008F1005A08F00071088E
:10072000F40070080319972BF435FF3E922B033029
:10073000720784000030733D85000008F2005A08FB
:10074000083CF000F1010030F13B7008F100720844
:10075000F00071080319AF2BF036FF3EAA2B740886
:10076000F00475088600760887007008810005305F
:10077000F0000030F10022006E08F400F5010521C0
:1007800020307007F2000030713DF3000330720733
:10079000F5000030733DF60075088400760885008A
:1007A0000008F1005A08F0007108F40070080319FD
:1007B000DC2BF435FF3ED72B02307207840000306B
:1007C000733D85000008F2005A08083CF000F10172
:1007D0000030F13B7008F1007208F0007108031955
:1007E000F42BF036FF3EEF2B7408F00475088600FA
:1007F00076088700700881000530F0000030F100B5
:1008000022006E08F400F501052120307007F20087
:100810000030713DF30002307207F5000030733D87
:10082000F60075088400760885000008F1005A0873
:10083000F0007108F40070080319212CF435FF3E14
:100840001C2C0130720784000030733D85000008C5
:10085000F2005A08083CF000F1010030F13B70084A
:10086000F1007208F00071080319392CF036FF3ED0
:10087000342C7408F0047508860076088700700828
:1008800081000530F0000030F10022006E08F40015
:10089000F501052120307007F2000030713DF300B2
:1008A00001307207F5000030733DF60075088400D2
:1008B000760885000008F1005A08F0007108F4007D
:1008C00070080319662CF435FF3E612C7208840011
:1008D000730885000008F2005A08083CF000F10196
:1008E0000030F13B7008F1007208F0007108031944
:1008F0007C2CF036FF3E772C7408F00475088600D7
:1009000076088700700881000530F0000030F100A3
:1009100022006E08F400F50105212030F0070030B8
:10092000F13D70082600DE007108DF0070088400C9
:10093000710885000008F10020005A08F0007108D5
:100940002600DD0070080319A82CDD35FF3EA32C1E
:1009500020005A08083C2600DB00DC010030DC3BAC
:1009600020006D08F0005A08F4000E2270082600DE
:100970005B02F00071085C3BF1007008F1002000A0
:100980006E08F00071080319C82CF036FF3EC32C26
:1009900026005D08F0045E0886005F088700700886
:1009A00081002200EE0A312B0F302100EE000030D2
:1009B000EF002000DB0121006F08003C031DE32C49
:1009C0006E0820005B020318032D20000130E400B4
:1009D000DC0108305C020318012D5C082200EF00E6
:1009E000D521640822008D002000E4350B30FC0086
:1009F0006230FD00FD0BFA2CFC0BFA2C0000DC0A27
:100A0000E92CDB0ADB2C2000ED0A262BE30A172B4E
:040A1000162B092D6B
:100D5C00AA308400853085003730F0000130F10076
:100D6C0020308600003087009E223A308400863086
:100D7C0085002C30F0000130F100A03086000030EE
:100D8C0087009E220E308400863085002C30F000C7
:100D9C000130F10020308600013087009E22AC30FB
:100DAC008400863085000230F0000130F1005730AD
:100DBC008600003087009E228830840086308500B3
:100DCC002230F0000130F100CC308600003087007A
:100DDC009E2266308400863085002230F00001307F
:100DEC00F1004C308600013087009E22E1308400F7
:100DFC00853085002D30F0000130F100A0308600E8
:100E0C00013087009E22AA30840086308500023093
:100E1C00F0000130F10059308600003087009E222E
:020E2C000800BC
:100A1A005434483449345334203449345334203418
:100A2A0041342034443445344D344F344E345334F5
:100A3A00543452344134543449344F344E342034CB
:100A4A004F344634203441344E3420343834583408
:100A5A003434303420344C344534443420344D3426
:100A6A0041345434523449345834203444344934A7
:100A7A00533450344C34413459342034553453347B
:100A8A0049344E3447342034533448344934463494
:100A9A00543420345234453447344934533454346A
:100AAA00453452345334203441344E34443420349F
:100ABA00503449344334313436344634313438349A
:100ACA003434373420344D344934433452344F3477
:100ADA0043344F344E34543452344F344C344C34FF
:100AEA00453452342E34203446344F345234203470
:100AFA004D344F345234453420344434453454341C
:100B0A00413449344C345334203456344934533400
:100B1A004934543420345734573457342E344534F6
:100B2A004D344234453444344434453444342D3409
:100B3A004C34413442342E3443344F344D342E3401
:0A0B4A00203420342034203400341D
:100B540000340034003400340034003400340034F1
:100B640000340034003400340034003400340034E1
:100B740000340034003400340034003400340034D1
:100B840000340034003400340034003400340034C1
:100B940000340034003400340034003400340034B1
:100BA4004D3445345334533441344734453420347C
:0E0BB400533441345634453444342134003433
:100BC2004D3465347334733461346734653420349E
:100BD200723465346334653469347634653464342C
:100BE2002E3420344E346F347734203473346134ED
:100BF200763469346E346734203469346E34743434
:100C02006F34203445344534503452344F344D34EB
:0A0C120020342E342E342E3400342A
:100C1C00573461346934743469346E346734203435
:100C2C0066346F347234203479346F3475347234E2
:100C3C00203469346E347034753474342034283470
:100C4C004D34413458342E3420343234353430342D
:100C5C00203463346834613472342E3429342034B3
:080C6C002E342E342E34003426
:100C7400473472346534613474342134203441345B
:100C84006C34773461347934733420347434653497
:100C940072346D3469346E346134743465342034A0
:100CA40079346F347534723420346D34653473346C
:100CB400733461346734653420347734693474347C
:080CC4006834203423340034AD
:100CCC002D342D342D342D342034383458343434E0
:100CDC00303420344C344534443420344D34613475
:100CEC007434723469347834203444346934733451
:100CFC0070346C346134793420342D342D342D34EB
:040D0C002D3400344E
:100D1000413452344534203459344F34553420341E
:100D200052344534413444345934203446344F34F9
:100D30005234203459344F345534523420344934E9
:100D40004E345034553454343F34203459342F34D5
:040D50004E340034E9
:020D5400003469
:020D5600013466
:040D5800233400340C
:101000000034003400340034003400340034003440
:101010000434043404340434043404340034043414
:101020000A340A340A340034003400340034003402
:1010300000340A341F340A341F340A341F340A348B
:1010400007340C3414340C340634053406341C34A0
:1010500019341A3402340434043408340B3413348D
:1010600006340A341234143409341634163409346C
:1010700004340434043400340034003400340034C4
:101080000234043408340834083408340434023494
:101090000834043402340234023402340434083490
:1010A00015340E341F340E3415340034003400343B
:1010B00000340034043404341F3404340434003461
:1010C000003400340034003400340634043408346E
:1010D00000340034003400340E3400340034003462
:1010E000003400340034003400340034003404345C
:1010F0000134023402340434043408340834103423
:101100000E341134133411341534113419340E34AF
:1011100004340C34143404340434043404341F34DC
:101120000E341134113402340434083410341F34B2
:101130000E34113401340E340134013411340E34C0
:1011400010341034143414341F340434043404348C
:101150001F34103410341E340134013401341E3471
:101160000734083410341E341134113411340E3461
:101170001F3401340134013402340434083410348F
:101180000E34113411340E341134113411340E3440
:101190000E34113411340F3401340134013401346C
:1011A000003404340434003400340434043400348F
:1011B0000034043404340034003404340434083477
:1011C0000134023404340834083404340234013461
:1011D0000034003400341E3400341E340034003433
:1011E0001034083404340234023404340834103423
:1011F0000E34113411340234043404340034043411
:101200000E341134113415341534113411341E34A4
:101210000E341134113411341F341134113411349B
:101220001E34113411341E341134113411341E346F
:1012300007340834103410341034103408340734B0
:101240001C341234113411341134113412341C345E
:101250001F34103410341E341034103410341F3442
:101260001F34103410341E34103410341034103441
:101270000E341134103410341734113411340E3448
:101280001134113411341F34113411341134113428
:101290001F340434043404340434043404341F3458
:1012A0001F3404340434043404340434143408344F
:1012B00011341234143418341434123411341134F7
:1012C00010341034103410341034103410341F34EF
:1012D00011341B341F3415341134113411341134CA
:1012E00011341934193415341534133413341134BA
:1012F0000E341134113411341134113411340E34CC
:101300001E34113411341E3410341034103410349F
:101310000E341134113411341134153413340F34A4
:101320001E34113411341E34143412341134113477
:101330000E341134103408340634013411340E34B0
:101340001F340434043404340434043404340434C2
:1013500011341134113411341134113411340E3468
:101360001134113411341134113411340A34043469
:1013700011341134113411341134153415340A3444
:10138000113411340A34043404340A34113411345D
:10139000113411340A34043404340434043404346D
:1013A0001F340134023404340834103410341F3430
:1013B0000E340834083408340834083408340E3441
:1013C0001034083408340434043402340234013450
:1013D0000E340234023402340234023402340E3445
:1013E00004340A341134003400340034003400343E
:1013F00000340034003400340034003400341F342E
:101400000834043400340034003400340034003430
:101410000034003400340E341234123412340F34D9
:1014200000341034103410341C34123412341C3490
:101430000034003400340E341034103410340E34C0
:1014400000340134013401340734093409340734D9
:101450000034003400341C3412341E3410340E3482
:1014600000340334043404340634043404340434BF
:1014700000340E340A340A340E34023402340C348C
:1014800000341034103410341C341234123412343A
:101490000034003404340034043404340434043498
:1014A00000340234003402340234023402340C3486
:1014B0000034103410341434183418341434103404
:1014C00000341034103410341034103410340C3410
:1014D0000034003400340A3415341134113411341A
:1014E00000340034003414341A34123412341234F8
:1014F0000034003400340C341234123412340C34FE
:1015000000341C34123412341C34103410341034AF
:1015100000340E34123412340E34023402340134E6
:101520000034003400340A340C34083408340834ED
:10153000003400340E3410340834043402341E34C1
:101540000034103410341C341034103410340C3483
:1015500000340034003412341234123412340C3497
:101560000034003400341134113411340A3404349A
:1015700000340034003411341134113415340A3479
:1015800000340034003411340A3404340A34113481
:101590000034003411340A3404340834083410346C
:1015A0000034003400341F340234043408341F344F
:1015B000023404340434043408340434043402346B
:1015C000043404340434043404340434043404345B
:1015D0000834043404340434023404340434083445
:1015E0000034003400340A341E341434003400341F
:020000040001F9
:04000E00C43F1317C1
:00000001FF
